{
  "contractName": "BlockPaperScissors",
  "abi": [
    {
      "constant": false,
      "inputs": [
        {
          "name": "opponent",
          "type": "address"
        },
        {
          "name": "choice",
          "type": "string"
        },
        {
          "name": "gameId",
          "type": "string"
        }
      ],
      "name": "createPlay",
      "outputs": [],
      "payable": false,
      "stateMutability": "nonpayable",
      "type": "function"
    },
    {
      "constant": true,
      "inputs": [
        {
          "name": "player",
          "type": "address"
        },
        {
          "name": "opponent",
          "type": "address"
        },
        {
          "name": "gameId",
          "type": "string"
        }
      ],
      "name": "getChoice",
      "outputs": [
        {
          "name": "",
          "type": "string"
        }
      ],
      "payable": false,
      "stateMutability": "view",
      "type": "function"
    }
  ],
  "bytecode": "0x6060604052341561000f57600080fd5b6107a08061001e6000396000f30060606040526004361061004c576000357c0100000000000000000000000000000000000000000000000000000000900463ffffffff168063309bb0ea14610051578063b8162fde14610165575b600080fd5b341561005c57600080fd5b6100ea600480803573ffffffffffffffffffffffffffffffffffffffff1690602001909190803573ffffffffffffffffffffffffffffffffffffffff1690602001909190803590602001908201803590602001908080601f01602080910402602001604051908101604052809392919081815260200183838082843782019150505050505091905050610224565b6040518080602001828103825283818151815260200191508051906020019080838360005b8381101561012a57808201518184015260208101905061010f565b50505050905090810190601f1680156101575780820380516001836020036101000a031916815260200191505b509250505060405180910390f35b341561017057600080fd5b610222600480803573ffffffffffffffffffffffffffffffffffffffff1690602001909190803590602001908201803590602001908080601f0160208091040260200160405190810160405280939291908181526020018383808284378201915050505050509190803590602001908201803590602001908080601f01602080910402602001604051908101604052809392919081815260200183838082843782019150505050505091905050610490565b005b61022c6106bb565b8273ffffffffffffffffffffffffffffffffffffffff166000808673ffffffffffffffffffffffffffffffffffffffff1673ffffffffffffffffffffffffffffffffffffffff168152602001908152602001600020836040518082805190602001908083835b6020831015156102b75780518252602082019150602081019050602083039250610292565b6001836020036101000a038019825116818451168082178552505050505050905001915050908152602001604051809103902060000160009054906101000a900473ffffffffffffffffffffffffffffffffffffffff1673ffffffffffffffffffffffffffffffffffffffff161415156103435760206040519081016040528060008152509050610489565b6000808573ffffffffffffffffffffffffffffffffffffffff1673ffffffffffffffffffffffffffffffffffffffff168152602001908152602001600020826040518082805190602001908083835b6020831015156103b75780518252602082019150602081019050602083039250610392565b6001836020036101000a03801982511681845116808217855250505050505090500191505090815260200160405180910390206001018054600181600116156101000203166002900480601f0160208091040260200160405190810160405280929190818152602001828054600181600116156101000203166002900480156104815780601f1061045657610100808354040283529160200191610481565b820191906000526020600020905b81548152906001019060200180831161046457829003601f168201915b505050505090505b9392505050565b6000803373ffffffffffffffffffffffffffffffffffffffff1673ffffffffffffffffffffffffffffffffffffffff168152602001908152602001600020816040518082805190602001908083835b60208310151561050457805182526020820191506020810190506020830392506104df565b6001836020036101000a038019825116818451168082178552505050505050905001915050908152602001604051809103902060020160009054906101000a900460ff1615610552576106b6565b6060604051908101604052808473ffffffffffffffffffffffffffffffffffffffff168152602001838152602001600115158152506000803373ffffffffffffffffffffffffffffffffffffffff1673ffffffffffffffffffffffffffffffffffffffff168152602001908152602001600020826040518082805190602001908083835b6020831015156105fb57805182526020820191506020810190506020830392506105d6565b6001836020036101000a038019825116818451168082178552505050505050905001915050908152602001604051809103902060008201518160000160006101000a81548173ffffffffffffffffffffffffffffffffffffffff021916908373ffffffffffffffffffffffffffffffffffffffff16021790555060208201518160010190805190602001906106919291906106cf565b5060408201518160020160006101000a81548160ff0219169083151502179055509050505b505050565b602060405190810160405280600081525090565b828054600181600116156101000203166002900490600052602060002090601f016020900481019282601f1061071057805160ff191683800117855561073e565b8280016001018555821561073e579182015b8281111561073d578251825591602001919060010190610722565b5b50905061074b919061074f565b5090565b61077191905b8082111561076d576000816000905550600101610755565b5090565b905600a165627a7a72305820aa66842e53c1c4e2eefe3c8ec465d46915b2ccca09953bf607b1cba3bc84f8360029",
  "source": "pragma solidity ^0.4.2;\n\ncontract BlockPaperScissors {\n  struct Play {\n    address opponent;\n    string choice;\n    bool isSet;\n  }\n\n  mapping(address => mapping(string => Play)) private records;\n\n  function createPlay(address opponent, string choice, string gameId) public {\n    if (records[msg.sender][gameId].isSet) return;\n    records[msg.sender][gameId] = Play({opponent: opponent, choice: choice, isSet: true});\n  }\n\n  function getChoice(address player, address opponent, string gameId) public view returns (string) {\n    if (records[player][gameId].opponent != opponent) return \"\";\n    return records[player][gameId].choice;\n  }\n}\n",
  "sourcePath": "/Users/tyleryasaka/projects/block-paper-scissors/contracts/BlockPaperScissors.sol",
  "compiler": {
    "name": "solc",
    "version": "0.4.19+commit.c4cbbb05.Emscripten.clang"
  },
  "schemaVersion": "1.0.1",
  "updatedAt": "2018-02-16T13:08:08.804Z"
}